{
  "contractName": "Marketplace",
  "abi": [
    {
      "inputs": [
        {
          "internalType": "uint256",
          "name": "_feePercent",
          "type": "uint256"
        }
      ],
      "stateMutability": "nonpayable",
      "type": "constructor"
    },
    {
      "anonymous": false,
      "inputs": [
        {
          "indexed": false,
          "internalType": "uint256",
          "name": "itemId",
          "type": "uint256"
        },
        {
          "indexed": true,
          "internalType": "address",
          "name": "nft",
          "type": "address"
        },
        {
          "indexed": false,
          "internalType": "uint256",
          "name": "tokenId",
          "type": "uint256"
        },
        {
          "indexed": false,
          "internalType": "uint256",
          "name": "price",
          "type": "uint256"
        },
        {
          "indexed": true,
          "internalType": "address",
          "name": "seller",
          "type": "address"
        },
        {
          "indexed": true,
          "internalType": "address",
          "name": "buyer",
          "type": "address"
        }
      ],
      "name": "Bought",
      "type": "event"
    },
    {
      "anonymous": false,
      "inputs": [
        {
          "indexed": false,
          "internalType": "uint256",
          "name": "itemId",
          "type": "uint256"
        },
        {
          "indexed": true,
          "internalType": "address",
          "name": "nft",
          "type": "address"
        },
        {
          "indexed": false,
          "internalType": "uint256",
          "name": "tokenId",
          "type": "uint256"
        },
        {
          "indexed": false,
          "internalType": "uint256",
          "name": "price",
          "type": "uint256"
        },
        {
          "indexed": true,
          "internalType": "address",
          "name": "seller",
          "type": "address"
        }
      ],
      "name": "Offered",
      "type": "event"
    },
    {
      "inputs": [],
      "name": "feeAccount",
      "outputs": [
        {
          "internalType": "address payable",
          "name": "",
          "type": "address"
        }
      ],
      "stateMutability": "view",
      "type": "function"
    },
    {
      "inputs": [],
      "name": "feePercent",
      "outputs": [
        {
          "internalType": "uint256",
          "name": "",
          "type": "uint256"
        }
      ],
      "stateMutability": "view",
      "type": "function"
    },
    {
      "inputs": [],
      "name": "itemCount",
      "outputs": [
        {
          "internalType": "uint256",
          "name": "",
          "type": "uint256"
        }
      ],
      "stateMutability": "view",
      "type": "function"
    },
    {
      "inputs": [
        {
          "internalType": "uint256",
          "name": "",
          "type": "uint256"
        }
      ],
      "name": "items",
      "outputs": [
        {
          "internalType": "uint256",
          "name": "itemId",
          "type": "uint256"
        },
        {
          "internalType": "contract IERC721",
          "name": "nft",
          "type": "address"
        },
        {
          "internalType": "uint256",
          "name": "tokenId",
          "type": "uint256"
        },
        {
          "internalType": "uint256",
          "name": "price",
          "type": "uint256"
        },
        {
          "internalType": "address payable",
          "name": "seller",
          "type": "address"
        },
        {
          "internalType": "bool",
          "name": "sold",
          "type": "bool"
        }
      ],
      "stateMutability": "view",
      "type": "function"
    },
    {
      "inputs": [
        {
          "internalType": "contract IERC721",
          "name": "_nft",
          "type": "address"
        },
        {
          "internalType": "uint256",
          "name": "_tokenId",
          "type": "uint256"
        },
        {
          "internalType": "uint256",
          "name": "_price",
          "type": "uint256"
        }
      ],
      "name": "makeItem",
      "outputs": [],
      "stateMutability": "nonpayable",
      "type": "function"
    },
    {
      "inputs": [
        {
          "internalType": "uint256",
          "name": "_itemId",
          "type": "uint256"
        }
      ],
      "name": "comprarItem",
      "outputs": [],
      "stateMutability": "payable",
      "type": "function"
    },
    {
      "inputs": [
        {
          "internalType": "uint256",
          "name": "_itemId",
          "type": "uint256"
        }
      ],
      "name": "getTotalPrice",
      "outputs": [
        {
          "internalType": "uint256",
          "name": "",
          "type": "uint256"
        }
      ],
      "stateMutability": "view",
      "type": "function"
    }
  ],
  "bytecode": "0x60c060405234801561001057600080fd5b50604051610f28380380610f28833981810160405281019061003291906100b7565b60016000819055503373ffffffffffffffffffffffffffffffffffffffff1660808173ffffffffffffffffffffffffffffffffffffffff16815250508060a08181525050506100e4565b600080fd5b6000819050919050565b61009481610081565b811461009f57600080fd5b50565b6000815190506100b18161008b565b92915050565b6000602082840312156100cd576100cc61007c565b5b60006100db848285016100a2565b91505092915050565b60805160a051610e116101176000396000818161051101526105c20152600081816102e001526104e70152610e116000f3fe6080604052600436106100705760003560e01c80637fd6f15c1161004e5780637fd6f15c146100e7578063bfb231d214610112578063ca7dd37514610154578063fa00afc71461019157610070565b80636470f6f91461007557806365e17c9d146100915780636bfb0d01146100bc575b600080fd5b61008f600480360381019061008a91906108f5565b6101ba565b005b34801561009d57600080fd5b506100a66104e5565b6040516100b39190610963565b60405180910390f35b3480156100c857600080fd5b506100d1610509565b6040516100de919061098d565b60405180910390f35b3480156100f357600080fd5b506100fc61050f565b604051610109919061098d565b60405180910390f35b34801561011e57600080fd5b50610139600480360381019061013491906108f5565b610533565b60405161014b96959493929190610a22565b60405180910390f35b34801561016057600080fd5b5061017b600480360381019061017691906108f5565b6105bc565b604051610188919061098d565b60405180910390f35b34801561019d57600080fd5b506101b860048036038101906101b39190610ad3565b61061f565b005b6002600054036101ff576040517f08c379a00000000000000000000000000000000000000000000000000000000081526004016101f690610b83565b60405180910390fd5b60026000819055506000610212826105bc565b9050600060026000848152602001908152602001600020905060008311801561023d57506001548311155b61024657600080fd5b8134101561025357600080fd5b8060040160149054906101000a900460ff161561026f57600080fd5b8060040160009054906101000a900473ffffffffffffffffffffffffffffffffffffffff1673ffffffffffffffffffffffffffffffffffffffff166108fc82600301549081150290604051600060405180830381858888f193505050501580156102dd573d6000803e3d6000fd5b507f000000000000000000000000000000000000000000000000000000000000000073ffffffffffffffffffffffffffffffffffffffff166108fc8260030154846103289190610bd2565b9081150290604051600060405180830381858888f19350505050158015610353573d6000803e3d6000fd5b5060018160040160146101000a81548160ff0219169083151502179055508060010160009054906101000a900473ffffffffffffffffffffffffffffffffffffffff1673ffffffffffffffffffffffffffffffffffffffff166323b872dd303384600201546040518463ffffffff1660e01b81526004016103d693929190610c15565b600060405180830381600087803b1580156103f057600080fd5b505af1158015610404573d6000803e3d6000fd5b505050503373ffffffffffffffffffffffffffffffffffffffff168160040160009054906101000a900473ffffffffffffffffffffffffffffffffffffffff1673ffffffffffffffffffffffffffffffffffffffff168260010160009054906101000a900473ffffffffffffffffffffffffffffffffffffffff1673ffffffffffffffffffffffffffffffffffffffff167f8b4c9c8a607d67b321582dd8461041b1dc2ceeca70c8b7f37f8e02095cf2e76d86856002015486600301546040516104d093929190610c4c565b60405180910390a45050600160008190555050565b7f000000000000000000000000000000000000000000000000000000000000000081565b60015481565b7f000000000000000000000000000000000000000000000000000000000000000081565b60026020528060005260406000206000915090508060000154908060010160009054906101000a900473ffffffffffffffffffffffffffffffffffffffff16908060020154908060030154908060040160009054906101000a900473ffffffffffffffffffffffffffffffffffffffff16908060040160149054906101000a900460ff16905086565b600060647f000000000000000000000000000000000000000000000000000000000000000060646105ed9190610c83565b600260008581526020019081526020016000206003015461060e9190610cd9565b6106189190610d62565b9050919050565b600260005403610664576040517f08c379a000000000000000000000000000000000000000000000000000000000815260040161065b90610b83565b60405180910390fd5b60026000819055506000811161067957600080fd5b6001600081548092919061068c90610d93565b91905055508273ffffffffffffffffffffffffffffffffffffffff166323b872dd3330856040518463ffffffff1660e01b81526004016106ce93929190610c15565b600060405180830381600087803b1580156106e857600080fd5b505af11580156106fc573d6000803e3d6000fd5b505050506040518060c0016040528060015481526020018473ffffffffffffffffffffffffffffffffffffffff1681526020018381526020018281526020013373ffffffffffffffffffffffffffffffffffffffff168152602001600015158152506002600060015481526020019081526020016000206000820151816000015560208201518160010160006101000a81548173ffffffffffffffffffffffffffffffffffffffff021916908373ffffffffffffffffffffffffffffffffffffffff160217905550604082015181600201556060820151816003015560808201518160040160006101000a81548173ffffffffffffffffffffffffffffffffffffffff021916908373ffffffffffffffffffffffffffffffffffffffff16021790555060a08201518160040160146101000a81548160ff0219169083151502179055509050503373ffffffffffffffffffffffffffffffffffffffff168373ffffffffffffffffffffffffffffffffffffffff167f655a0cf9c8db81512be9a76dc1c5ae5380b8816ce6ad659cd61b715e2999d59a60015485856040516108a593929190610c4c565b60405180910390a36001600081905550505050565b600080fd5b6000819050919050565b6108d2816108bf565b81146108dd57600080fd5b50565b6000813590506108ef816108c9565b92915050565b60006020828403121561090b5761090a6108ba565b5b6000610919848285016108e0565b91505092915050565b600073ffffffffffffffffffffffffffffffffffffffff82169050919050565b600061094d82610922565b9050919050565b61095d81610942565b82525050565b60006020820190506109786000830184610954565b92915050565b610987816108bf565b82525050565b60006020820190506109a2600083018461097e565b92915050565b6000819050919050565b60006109cd6109c86109c384610922565b6109a8565b610922565b9050919050565b60006109df826109b2565b9050919050565b60006109f1826109d4565b9050919050565b610a01816109e6565b82525050565b60008115159050919050565b610a1c81610a07565b82525050565b600060c082019050610a37600083018961097e565b610a4460208301886109f8565b610a51604083018761097e565b610a5e606083018661097e565b610a6b6080830185610954565b610a7860a0830184610a13565b979650505050505050565b6000610a8e82610922565b9050919050565b6000610aa082610a83565b9050919050565b610ab081610a95565b8114610abb57600080fd5b50565b600081359050610acd81610aa7565b92915050565b600080600060608486031215610aec57610aeb6108ba565b5b6000610afa86828701610abe565b9350506020610b0b868287016108e0565b9250506040610b1c868287016108e0565b9150509250925092565b600082825260208201905092915050565b7f5265656e7472616e637947756172643a207265656e7472616e742063616c6c00600082015250565b6000610b6d601f83610b26565b9150610b7882610b37565b602082019050919050565b60006020820190508181036000830152610b9c81610b60565b9050919050565b7f4e487b7100000000000000000000000000000000000000000000000000000000600052601160045260246000fd5b6000610bdd826108bf565b9150610be8836108bf565b925082821015610bfb57610bfa610ba3565b5b828203905092915050565b610c0f81610a83565b82525050565b6000606082019050610c2a6000830186610c06565b610c376020830185610c06565b610c44604083018461097e565b949350505050565b6000606082019050610c61600083018661097e565b610c6e602083018561097e565b610c7b604083018461097e565b949350505050565b6000610c8e826108bf565b9150610c99836108bf565b9250827fffffffffffffffffffffffffffffffffffffffffffffffffffffffffffffffff03821115610cce57610ccd610ba3565b5b828201905092915050565b6000610ce4826108bf565b9150610cef836108bf565b9250817fffffffffffffffffffffffffffffffffffffffffffffffffffffffffffffffff0483118215151615610d2857610d27610ba3565b5b828202905092915050565b7f4e487b7100000000000000000000000000000000000000000000000000000000600052601260045260246000fd5b6000610d6d826108bf565b9150610d78836108bf565b925082610d8857610d87610d33565b5b828204905092915050565b6000610d9e826108bf565b91507fffffffffffffffffffffffffffffffffffffffffffffffffffffffffffffffff8203610dd057610dcf610ba3565b5b60018201905091905056fea26469706673582212200dce16d2342e2a05357f07e73dc3e6d561706e0a66e60042505a86ac19ede92f64736f6c634300080d0033",
  "immutableReferences": {
    "1863": [
      {
        "length": 32,
        "start": 736
      },
      {
        "length": 32,
        "start": 1255
      }
    ],
    "1865": [
      {
        "length": 32,
        "start": 1297
      },
      {
        "length": 32,
        "start": 1474
      }
    ]
  },
  "source": "// SPDX-License-Identifier: MIT\r\npragma solidity ^0.8.13;\r\n\r\nimport \"@openzeppelin/contracts/token/ERC721/IERC721.sol\";\r\nimport \"@openzeppelin/contracts/security/ReentrancyGuard.sol\";\r\n\r\ncontract Marketplace is ReentrancyGuard {\r\n\r\n    address payable public immutable feeAccount;\r\n    uint public immutable feePercent;\r\n    uint public itemCount;\r\n\r\n    struct Item {\r\n        uint itemId;\r\n        IERC721 nft;\r\n        uint tokenId;\r\n        uint price;\r\n        address payable seller;\r\n        bool sold;\r\n    }\r\n\r\n    mapping(uint => Item) public items;\r\n\r\n    event Offered(\r\n        uint itemId,\r\n        address indexed nft,\r\n        uint tokenId,\r\n        uint price,\r\n        address indexed seller\r\n    );\r\n    event Bought(\r\n        uint itemId,\r\n        address indexed nft,\r\n        uint tokenId, \r\n        uint price,\r\n        address indexed seller,\r\n        address indexed buyer\r\n    );\r\n\r\n    constructor (uint _feePercent) {\r\n        feeAccount = payable(msg.sender);\r\n        feePercent = _feePercent;\r\n    }\r\n\r\n    function makeItem(IERC721 _nft, uint _tokenId, uint _price) external nonReentrant {\r\n        require(_price > 0);\r\n        itemCount++;\r\n        _nft.transferFrom(msg.sender, address(this), _tokenId);\r\n        items[itemCount] = Item(\r\n            itemCount,\r\n            _nft,\r\n            _tokenId,\r\n            _price,\r\n            payable(msg.sender),\r\n            false\r\n        );\r\n        emit Offered(\r\n            itemCount, \r\n            address(_nft),\r\n            _tokenId,\r\n            _price,\r\n            msg.sender\r\n        );\r\n    }\r\n\r\n    function comprarItem(uint _itemId) external payable nonReentrant {\r\n        uint _totalPrice = getTotalPrice(_itemId);\r\n        Item storage item = items[_itemId];\r\n        require(_itemId > 0 && _itemId <= itemCount);\r\n        require(msg.value >= _totalPrice);\r\n        require(!item.sold);\r\n        item.seller.transfer(item.price);\r\n        feeAccount.transfer(_totalPrice - item.price);\r\n        item.sold = true;\r\n        item.nft.transferFrom(address(this), msg.sender, item.tokenId);\r\n        emit Bought(\r\n            _itemId,\r\n            address(item.nft),\r\n            item.tokenId,\r\n            item.price,\r\n            item.seller,\r\n            msg.sender\r\n        );\r\n    }\r\n\r\n    function getTotalPrice(uint _itemId) view public returns(uint) {\r\n        return ((items[_itemId].price*(100 + feePercent))/100);\r\n    }\r\n\r\n}",
  "sourcePath": "C:\\Users\\SILEX PRO\\Desktop\\java\\proyectos\\Arthro\\Cernex BitBucket\\src\\contracts\\MarketPLace.sol",
  "compiler": {
    "name": "solc",
    "version": "0.8.13+commit.abaa5c0e.Emscripten.clang"
  },
  "schemaVersion": "3.4.16",
  "updatedAt": "2023-11-21T14:24:53.266Z",
  "devdoc": {
    "kind": "dev",
    "methods": {},
    "version": 1
  },
  "userdoc": {
    "kind": "user",
    "methods": {},
    "version": 1
  }
}