{
  "contractName": "RolexToken",
  "abi": [
    {
      "inputs": [
        {
          "internalType": "string",
          "name": "_name",
          "type": "string"
        },
        {
          "internalType": "string",
          "name": "_symbol",
          "type": "string"
        }
      ],
      "stateMutability": "nonpayable",
      "type": "constructor"
    },
    {
      "anonymous": false,
      "inputs": [
        {
          "indexed": true,
          "internalType": "address",
          "name": "owner",
          "type": "address"
        },
        {
          "indexed": true,
          "internalType": "address",
          "name": "approved",
          "type": "address"
        },
        {
          "indexed": true,
          "internalType": "uint256",
          "name": "tokenId",
          "type": "uint256"
        }
      ],
      "name": "Approval",
      "type": "event"
    },
    {
      "anonymous": false,
      "inputs": [
        {
          "indexed": true,
          "internalType": "address",
          "name": "owner",
          "type": "address"
        },
        {
          "indexed": true,
          "internalType": "address",
          "name": "operator",
          "type": "address"
        },
        {
          "indexed": false,
          "internalType": "bool",
          "name": "approved",
          "type": "bool"
        }
      ],
      "name": "ApprovalForAll",
      "type": "event"
    },
    {
      "anonymous": false,
      "inputs": [
        {
          "indexed": true,
          "internalType": "address",
          "name": "_owner",
          "type": "address"
        },
        {
          "indexed": false,
          "internalType": "uint256",
          "name": "_id",
          "type": "uint256"
        },
        {
          "indexed": false,
          "internalType": "string",
          "name": "_modelo",
          "type": "string"
        },
        {
          "indexed": false,
          "internalType": "uint256",
          "name": "_numSerie",
          "type": "uint256"
        }
      ],
      "name": "NewProductData",
      "type": "event"
    },
    {
      "anonymous": false,
      "inputs": [
        {
          "indexed": true,
          "internalType": "address",
          "name": "previousOwner",
          "type": "address"
        },
        {
          "indexed": true,
          "internalType": "address",
          "name": "newOwner",
          "type": "address"
        }
      ],
      "name": "OwnershipTransferred",
      "type": "event"
    },
    {
      "anonymous": false,
      "inputs": [
        {
          "indexed": true,
          "internalType": "address",
          "name": "from",
          "type": "address"
        },
        {
          "indexed": true,
          "internalType": "address",
          "name": "to",
          "type": "address"
        },
        {
          "indexed": true,
          "internalType": "uint256",
          "name": "tokenId",
          "type": "uint256"
        }
      ],
      "name": "Transfer",
      "type": "event"
    },
    {
      "inputs": [
        {
          "internalType": "address",
          "name": "owner",
          "type": "address"
        }
      ],
      "name": "balanceOf",
      "outputs": [
        {
          "internalType": "uint256",
          "name": "",
          "type": "uint256"
        }
      ],
      "stateMutability": "view",
      "type": "function",
      "constant": true
    },
    {
      "inputs": [
        {
          "internalType": "uint256",
          "name": "tokenId",
          "type": "uint256"
        }
      ],
      "name": "getApproved",
      "outputs": [
        {
          "internalType": "address",
          "name": "",
          "type": "address"
        }
      ],
      "stateMutability": "view",
      "type": "function",
      "constant": true
    },
    {
      "inputs": [
        {
          "internalType": "address",
          "name": "owner",
          "type": "address"
        },
        {
          "internalType": "address",
          "name": "operator",
          "type": "address"
        }
      ],
      "name": "isApprovedForAll",
      "outputs": [
        {
          "internalType": "bool",
          "name": "",
          "type": "bool"
        }
      ],
      "stateMutability": "view",
      "type": "function",
      "constant": true
    },
    {
      "inputs": [],
      "name": "name",
      "outputs": [
        {
          "internalType": "string",
          "name": "",
          "type": "string"
        }
      ],
      "stateMutability": "view",
      "type": "function",
      "constant": true
    },
    {
      "inputs": [],
      "name": "owner",
      "outputs": [
        {
          "internalType": "address",
          "name": "",
          "type": "address"
        }
      ],
      "stateMutability": "view",
      "type": "function",
      "constant": true
    },
    {
      "inputs": [
        {
          "internalType": "uint256",
          "name": "tokenId",
          "type": "uint256"
        }
      ],
      "name": "ownerOf",
      "outputs": [
        {
          "internalType": "address",
          "name": "",
          "type": "address"
        }
      ],
      "stateMutability": "view",
      "type": "function",
      "constant": true
    },
    {
      "inputs": [],
      "name": "price",
      "outputs": [
        {
          "internalType": "uint256",
          "name": "",
          "type": "uint256"
        }
      ],
      "stateMutability": "view",
      "type": "function",
      "constant": true
    },
    {
      "inputs": [
        {
          "internalType": "uint256",
          "name": "",
          "type": "uint256"
        }
      ],
      "name": "product_works",
      "outputs": [
        {
          "internalType": "uint256",
          "name": "id",
          "type": "uint256"
        },
        {
          "internalType": "bytes32",
          "name": "privateKey",
          "type": "bytes32"
        },
        {
          "internalType": "uint256",
          "name": "numPedido",
          "type": "uint256"
        },
        {
          "internalType": "string",
          "name": "descripcion",
          "type": "string"
        },
        {
          "internalType": "string",
          "name": "modelo",
          "type": "string"
        },
        {
          "internalType": "uint256",
          "name": "numeroSerie",
          "type": "uint256"
        },
        {
          "internalType": "uint256",
          "name": "fechaVenta",
          "type": "uint256"
        },
        {
          "internalType": "string",
          "name": "tokenUri",
          "type": "string"
        }
      ],
      "stateMutability": "view",
      "type": "function",
      "constant": true
    },
    {
      "inputs": [],
      "name": "renounceOwnership",
      "outputs": [],
      "stateMutability": "nonpayable",
      "type": "function"
    },
    {
      "inputs": [
        {
          "internalType": "address",
          "name": "operator",
          "type": "address"
        },
        {
          "internalType": "bool",
          "name": "approved",
          "type": "bool"
        }
      ],
      "name": "setApprovalForAll",
      "outputs": [],
      "stateMutability": "nonpayable",
      "type": "function"
    },
    {
      "inputs": [
        {
          "internalType": "bytes4",
          "name": "interfaceId",
          "type": "bytes4"
        }
      ],
      "name": "supportsInterface",
      "outputs": [
        {
          "internalType": "bool",
          "name": "",
          "type": "bool"
        }
      ],
      "stateMutability": "view",
      "type": "function",
      "constant": true
    },
    {
      "inputs": [],
      "name": "symbol",
      "outputs": [
        {
          "internalType": "string",
          "name": "",
          "type": "string"
        }
      ],
      "stateMutability": "view",
      "type": "function",
      "constant": true
    },
    {
      "inputs": [
        {
          "internalType": "uint256",
          "name": "tokenId",
          "type": "uint256"
        }
      ],
      "name": "tokenURI",
      "outputs": [
        {
          "internalType": "string",
          "name": "",
          "type": "string"
        }
      ],
      "stateMutability": "view",
      "type": "function",
      "constant": true
    },
    {
      "inputs": [
        {
          "internalType": "address",
          "name": "newOwner",
          "type": "address"
        }
      ],
      "name": "transferOwnership",
      "outputs": [],
      "stateMutability": "nonpayable",
      "type": "function"
    },
    {
      "inputs": [
        {
          "internalType": "address",
          "name": "from",
          "type": "address"
        },
        {
          "internalType": "address",
          "name": "to",
          "type": "address"
        },
        {
          "internalType": "uint256",
          "name": "tokenId",
          "type": "uint256"
        }
      ],
      "name": "transferFrom",
      "outputs": [],
      "stateMutability": "nonpayable",
      "type": "function"
    },
    {
      "inputs": [
        {
          "internalType": "address",
          "name": "from",
          "type": "address"
        },
        {
          "internalType": "address",
          "name": "to",
          "type": "address"
        },
        {
          "internalType": "uint256",
          "name": "tokenId",
          "type": "uint256"
        }
      ],
      "name": "safeTransferFrom",
      "outputs": [],
      "stateMutability": "nonpayable",
      "type": "function"
    },
    {
      "inputs": [
        {
          "internalType": "address",
          "name": "from",
          "type": "address"
        },
        {
          "internalType": "address",
          "name": "to",
          "type": "address"
        },
        {
          "internalType": "uint256",
          "name": "tokenId",
          "type": "uint256"
        },
        {
          "internalType": "bytes",
          "name": "_data",
          "type": "bytes"
        }
      ],
      "name": "safeTransferFrom",
      "outputs": [],
      "stateMutability": "nonpayable",
      "type": "function"
    },
    {
      "inputs": [
        {
          "internalType": "uint256",
          "name": "tokenId",
          "type": "uint256"
        }
      ],
      "name": "destroyCertificate",
      "outputs": [],
      "stateMutability": "nonpayable",
      "type": "function"
    },
    {
      "inputs": [
        {
          "internalType": "address",
          "name": "to",
          "type": "address"
        },
        {
          "internalType": "uint256",
          "name": "tokenId",
          "type": "uint256"
        }
      ],
      "name": "approve",
      "outputs": [],
      "stateMutability": "nonpayable",
      "type": "function"
    },
    {
      "inputs": [],
      "name": "infoSmartContract",
      "outputs": [
        {
          "internalType": "address",
          "name": "",
          "type": "address"
        },
        {
          "internalType": "address",
          "name": "",
          "type": "address"
        }
      ],
      "stateMutability": "view",
      "type": "function",
      "constant": true
    },
    {
      "inputs": [],
      "name": "getAllProductData",
      "outputs": [
        {
          "components": [
            {
              "internalType": "uint256",
              "name": "id",
              "type": "uint256"
            },
            {
              "internalType": "bytes32",
              "name": "privateKey",
              "type": "bytes32"
            },
            {
              "internalType": "uint256",
              "name": "numPedido",
              "type": "uint256"
            },
            {
              "internalType": "string",
              "name": "descripcion",
              "type": "string"
            },
            {
              "internalType": "string",
              "name": "modelo",
              "type": "string"
            },
            {
              "internalType": "uint256",
              "name": "numeroSerie",
              "type": "uint256"
            },
            {
              "internalType": "uint256",
              "name": "fechaVenta",
              "type": "uint256"
            },
            {
              "internalType": "string",
              "name": "tokenUri",
              "type": "string"
            }
          ],
          "internalType": "struct RolexToken.ProductData[]",
          "name": "",
          "type": "tuple[]"
        }
      ],
      "stateMutability": "view",
      "type": "function",
      "constant": true
    },
    {
      "inputs": [],
      "name": "getOwnerProductData",
      "outputs": [
        {
          "components": [
            {
              "internalType": "uint256",
              "name": "id",
              "type": "uint256"
            },
            {
              "internalType": "bytes32",
              "name": "privateKey",
              "type": "bytes32"
            },
            {
              "internalType": "uint256",
              "name": "numPedido",
              "type": "uint256"
            },
            {
              "internalType": "string",
              "name": "descripcion",
              "type": "string"
            },
            {
              "internalType": "string",
              "name": "modelo",
              "type": "string"
            },
            {
              "internalType": "uint256",
              "name": "numeroSerie",
              "type": "uint256"
            },
            {
              "internalType": "uint256",
              "name": "fechaVenta",
              "type": "uint256"
            },
            {
              "internalType": "string",
              "name": "tokenUri",
              "type": "string"
            }
          ],
          "internalType": "struct RolexToken.ProductData[]",
          "name": "",
          "type": "tuple[]"
        }
      ],
      "stateMutability": "view",
      "type": "function",
      "constant": true
    },
    {
      "inputs": [
        {
          "internalType": "address",
          "name": "_owner",
          "type": "address"
        }
      ],
      "name": "getOwnerProductData",
      "outputs": [
        {
          "components": [
            {
              "internalType": "uint256",
              "name": "id",
              "type": "uint256"
            },
            {
              "internalType": "bytes32",
              "name": "privateKey",
              "type": "bytes32"
            },
            {
              "internalType": "uint256",
              "name": "numPedido",
              "type": "uint256"
            },
            {
              "internalType": "string",
              "name": "descripcion",
              "type": "string"
            },
            {
              "internalType": "string",
              "name": "modelo",
              "type": "string"
            },
            {
              "internalType": "uint256",
              "name": "numeroSerie",
              "type": "uint256"
            },
            {
              "internalType": "uint256",
              "name": "fechaVenta",
              "type": "uint256"
            },
            {
              "internalType": "string",
              "name": "tokenUri",
              "type": "string"
            }
          ],
          "internalType": "struct RolexToken.ProductData[]",
          "name": "",
          "type": "tuple[]"
        }
      ],
      "stateMutability": "view",
      "type": "function",
      "constant": true
    },
    {
      "inputs": [
        {
          "internalType": "string",
          "name": "_nombre",
          "type": "string"
        },
        {
          "internalType": "string",
          "name": "_apellido1",
          "type": "string"
        },
        {
          "internalType": "string",
          "name": "_apellido2",
          "type": "string"
        },
        {
          "internalType": "string",
          "name": "_email",
          "type": "string"
        },
        {
          "internalType": "uint256",
          "name": "_numeroSerie",
          "type": "uint256"
        },
        {
          "internalType": "address",
          "name": "_ownerAddress",
          "type": "address"
        }
      ],
      "name": "createPrivateKey",
      "outputs": [
        {
          "internalType": "bytes32",
          "name": "",
          "type": "bytes32"
        }
      ],
      "stateMutability": "view",
      "type": "function",
      "constant": true
    },
    {
      "inputs": [
        {
          "internalType": "string",
          "name": "_nombre",
          "type": "string"
        },
        {
          "internalType": "string",
          "name": "_apellido1",
          "type": "string"
        },
        {
          "internalType": "string",
          "name": "_apellido2",
          "type": "string"
        },
        {
          "internalType": "string",
          "name": "_email",
          "type": "string"
        },
        {
          "internalType": "uint256",
          "name": "_numPedido",
          "type": "uint256"
        },
        {
          "internalType": "string",
          "name": "_descripcion",
          "type": "string"
        },
        {
          "internalType": "uint256",
          "name": "_numeroSerie",
          "type": "uint256"
        }
      ],
      "name": "checkUserDataForProductData",
      "outputs": [
        {
          "internalType": "bool",
          "name": "",
          "type": "bool"
        }
      ],
      "stateMutability": "view",
      "type": "function",
      "constant": true
    },
    {
      "inputs": [
        {
          "internalType": "uint256",
          "name": "_price",
          "type": "uint256"
        }
      ],
      "name": "updatePrice",
      "outputs": [],
      "stateMutability": "nonpayable",
      "type": "function"
    },
    {
      "inputs": [],
      "name": "withdraw",
      "outputs": [],
      "stateMutability": "payable",
      "type": "function",
      "payable": true
    },
    {
      "inputs": [
        {
          "internalType": "string",
          "name": "_nombre",
          "type": "string"
        },
        {
          "internalType": "string",
          "name": "_apellido1",
          "type": "string"
        },
        {
          "internalType": "string",
          "name": "_apellido2",
          "type": "string"
        },
        {
          "internalType": "string",
          "name": "_email",
          "type": "string"
        },
        {
          "internalType": "uint256",
          "name": "_numPedido",
          "type": "uint256"
        },
        {
          "internalType": "string",
          "name": "_descripcion",
          "type": "string"
        },
        {
          "internalType": "string",
          "name": "_modelo",
          "type": "string"
        },
        {
          "internalType": "uint256",
          "name": "_numeroSerie",
          "type": "uint256"
        },
        {
          "internalType": "address",
          "name": "_ownerAddress",
          "type": "address"
        },
        {
          "internalType": "string",
          "name": "imageURI",
          "type": "string"
        },
        {
          "internalType": "uint256",
          "name": "fechaVenta",
          "type": "uint256"
        }
      ],
      "name": "createProductDataAllFields",
      "outputs": [],
      "stateMutability": "payable",
      "type": "function",
      "payable": true
    },
    {
      "inputs": [
        {
          "internalType": "bytes32",
          "name": "_privateKey",
          "type": "bytes32"
        },
        {
          "internalType": "uint256",
          "name": "_numPedido",
          "type": "uint256"
        },
        {
          "internalType": "string",
          "name": "_descripcion",
          "type": "string"
        },
        {
          "internalType": "string",
          "name": "_modelo",
          "type": "string"
        },
        {
          "internalType": "uint256",
          "name": "_numeroSerie",
          "type": "uint256"
        },
        {
          "internalType": "address",
          "name": "userAddress",
          "type": "address"
        },
        {
          "internalType": "string",
          "name": "imageURI",
          "type": "string"
        },
        {
          "internalType": "uint256",
          "name": "fechaVenta",
          "type": "uint256"
        }
      ],
      "name": "createProductData",
      "outputs": [],
      "stateMutability": "payable",
      "type": "function",
      "payable": true
    }
  ],
  "bytecode": "0x60806040526113886009556109c4600a553480156200001d57600080fd5b506040516200627f3803806200627f8339818101604052810190620000439190620003bc565b818181600090805190602001906200005d9291906200016f565b508060019080519060200190620000769291906200016f565b505050620000996200008d620000a160201b60201c565b620000a960201b60201c565b5050620004a5565b600033905090565b6000600760009054906101000a900473ffffffffffffffffffffffffffffffffffffffff16905081600760006101000a81548173ffffffffffffffffffffffffffffffffffffffff021916908373ffffffffffffffffffffffffffffffffffffffff1602179055508173ffffffffffffffffffffffffffffffffffffffff168173ffffffffffffffffffffffffffffffffffffffff167f8be0079c531659141344cd1fd0a4f28419497f9722a3daafe3b4186f6b6457e060405160405180910390a35050565b8280546200017d9062000470565b90600052602060002090601f016020900481019282620001a15760008555620001ed565b82601f10620001bc57805160ff1916838001178555620001ed565b82800160010185558215620001ed579182015b82811115620001ec578251825591602001919060010190620001cf565b5b509050620001fc919062000200565b5090565b5b808211156200021b57600081600090555060010162000201565b5090565b6000604051905090565b600080fd5b600080fd5b600080fd5b600080fd5b6000601f19601f8301169050919050565b7f4e487b7100000000000000000000000000000000000000000000000000000000600052604160045260246000fd5b62000288826200023d565b810181811067ffffffffffffffff82111715620002aa57620002a96200024e565b5b80604052505050565b6000620002bf6200021f565b9050620002cd82826200027d565b919050565b600067ffffffffffffffff821115620002f057620002ef6200024e565b5b620002fb826200023d565b9050602081019050919050565b60005b83811015620003285780820151818401526020810190506200030b565b8381111562000338576000848401525b50505050565b6000620003556200034f84620002d2565b620002b3565b90508281526020810184848401111562000374576200037362000238565b5b6200038184828562000308565b509392505050565b600082601f830112620003a157620003a062000233565b5b8151620003b38482602086016200033e565b91505092915050565b60008060408385031215620003d657620003d562000229565b5b600083015167ffffffffffffffff811115620003f757620003f66200022e565b5b620004058582860162000389565b925050602083015167ffffffffffffffff8111156200042957620004286200022e565b5b620004378582860162000389565b9150509250929050565b7f4e487b7100000000000000000000000000000000000000000000000000000000600052602260045260246000fd5b600060028204905060018216806200048957607f821691505b6020821081036200049f576200049e62000441565b5b50919050565b615dca80620004b56000396000f3fe6080604052600436106101c25760003560e01c8063715018a6116100f7578063b88d4fde11610095578063e985e9c511610064578063e985e9c514610631578063ef5261631461066e578063f2fde38b14610699578063fe525dcf146106c2576101c2565b8063b88d4fde1461055c578063bf59a7b914610585578063c87b56dd146105b0578063cb7500df146105ed576101c2565b806395d89b41116100d157806395d89b41146104b15780639b6c354e146104dc578063a035b1fe14610508578063a22cb46514610533576101c2565b8063715018a6146104465780638d6cc56d1461045d5780638da5cb5b14610486576101c2565b80632c1ecf9b1161016457806342842e0e1161013e57806342842e0e146103665780634e08bf111461038f5780636352211e146103cc57806370a0823114610409576101c2565b80632c1ecf9b146103175780632eaaf9de146103405780633ccfd60b1461035c576101c2565b8063081812fc116101a0578063081812fc1461026c578063095ea7b3146102a957806320c1ed84146102d257806323b872dd146102ee576101c2565b806301ffc9a7146101c757806306d889ba1461020457806306fdde0314610241575b600080fd5b3480156101d357600080fd5b506101ee60048036038101906101e99190613e38565b6106ff565b6040516101fb9190613e80565b60405180910390f35b34801561021057600080fd5b5061022b60048036038101906102269190614075565b6107e1565b604051610238919061418b565b60405180910390f35b34801561024d57600080fd5b506102566108e4565b604051610263919061422e565b60405180910390f35b34801561027857600080fd5b50610293600480360381019061028e9190614250565b610976565b6040516102a0919061428c565b60405180910390f35b3480156102b557600080fd5b506102d060048036038101906102cb91906142a7565b6109fb565b005b6102ec60048036038101906102e79190614313565b610c37565b005b3480156102fa57600080fd5b506103156004803603810190610310919061441d565b610e54565b005b34801561032357600080fd5b5061033e60048036038101906103399190614250565b610fce565b005b61035a60048036038101906103559190614470565b61118c565b005b6103646113bf565b005b34801561037257600080fd5b5061038d6004803603810190610388919061441d565b611491565b005b34801561039b57600080fd5b506103b660048036038101906103b19190614628565b6114b1565b6040516103c39190613e80565b60405180910390f35b3480156103d857600080fd5b506103f360048036038101906103ee9190614250565b6117d6565b604051610400919061428c565b60405180910390f35b34801561041557600080fd5b50610430600480360381019061042b9190614756565b611887565b60405161043d9190614792565b60405180910390f35b34801561045257600080fd5b5061045b61193e565b005b34801561046957600080fd5b50610484600480360381019061047f9190614250565b6119c6565b005b34801561049257600080fd5b5061049b611a4c565b6040516104a8919061428c565b60405180910390f35b3480156104bd57600080fd5b506104c6611a76565b6040516104d3919061422e565b60405180910390f35b3480156104e857600080fd5b506104f1611b08565b6040516104ff9291906147ad565b60405180910390f35b34801561051457600080fd5b5061051d611b22565b60405161052a9190614792565b60405180910390f35b34801561053f57600080fd5b5061055a60048036038101906105559190614802565b611b28565b005b34801561056857600080fd5b50610583600480360381019061057e91906148e3565b611b3e565b005b34801561059157600080fd5b5061059a611cba565b6040516105a79190614b4e565b60405180910390f35b3480156105bc57600080fd5b506105d760048036038101906105d29190614250565b611f7e565b6040516105e4919061422e565b60405180910390f35b3480156105f957600080fd5b50610614600480360381019061060f9190614250565b6120cf565b604051610628989796959493929190614b70565b60405180910390f35b34801561063d57600080fd5b5061065860048036038101906106539190614c03565b6122bf565b6040516106659190613e80565b60405180910390f35b34801561067a57600080fd5b50610683612353565b6040516106909190614b4e565b60405180910390f35b3480156106a557600080fd5b506106c060048036038101906106bb9190614756565b61266f565b005b3480156106ce57600080fd5b506106e960048036038101906106e49190614756565b612766565b6040516106f69190614b4e565b60405180910390f35b60007f80ac58cd000000000000000000000000000000000000000000000000000000007bffffffffffffffffffffffffffffffffffffffffffffffffffffffff1916827bffffffffffffffffffffffffffffffffffffffffffffffffffffffff191614806107ca57507f5b5e139f000000000000000000000000000000000000000000000000000000007bffffffffffffffffffffffffffffffffffffffffffffffffffffffff1916827bffffffffffffffffffffffffffffffffffffffffffffffffffffffff1916145b806107da57506107d982612b00565b5b9050919050565b60006107eb612b6a565b73ffffffffffffffffffffffffffffffffffffffff16610809611a4c565b73ffffffffffffffffffffffffffffffffffffffff161461085f576040517f08c379a000000000000000000000000000000000000000000000000000000000815260040161085690614c8f565b60405180910390fd5b600287878787878760405160200161087c96959493929190614d54565b6040516020818303038152906040526040516108989190614dfb565b602060405180830381855afa1580156108b5573d6000803e3d6000fd5b5050506040513d601f19601f820116820180604052508101906108d89190614e27565b90509695505050505050565b6060600080546108f390614e83565b80601f016020809104026020016040519081016040528092919081815260200182805461091f90614e83565b801561096c5780601f106109415761010080835404028352916020019161096c565b820191906000526020600020905b81548152906001019060200180831161094f57829003601f168201915b5050505050905090565b600061098182612b72565b6109c0576040517f08c379a00000000000000000000000000000000000000000000000000000000081526004016109b790614f26565b60405180910390fd5b6004600083815260200190815260200160002060009054906101000a900473ffffffffffffffffffffffffffffffffffffffff169050919050565b80610a04612b6a565b73ffffffffffffffffffffffffffffffffffffffff16610a22611a4c565b73ffffffffffffffffffffffffffffffffffffffff161480610a7e5750610a47612b6a565b73ffffffffffffffffffffffffffffffffffffffff16610a66826117d6565b73ffffffffffffffffffffffffffffffffffffffff16145b80610abc57503373ffffffffffffffffffffffffffffffffffffffff16610aa482610976565b73ffffffffffffffffffffffffffffffffffffffff16145b80610ad55750610ad4610ace826117d6565b336122bf565b5b610b14576040517f08c379a0000000000000000000000000000000000000000000000000000000008152600401610b0b90614fb8565b60405180910390fd5b6000610b1f836117d6565b9050610b2a83612b72565b610b69576040517f08c379a0000000000000000000000000000000000000000000000000000000008152600401610b6090615024565b60405180910390fd5b8073ffffffffffffffffffffffffffffffffffffffff168473ffffffffffffffffffffffffffffffffffffffff1603610bd7576040517f08c379a0000000000000000000000000000000000000000000000000000000008152600401610bce906150b6565b60405180910390fd5b610be8610be2612b6a565b84612bde565b610c27576040517f08c379a0000000000000000000000000000000000000000000000000000000008152600401610c1e9061516e565b60405180910390fd5b610c318484612cf9565b50505050565b610c3f612b6a565b73ffffffffffffffffffffffffffffffffffffffff16610c5d611a4c565b73ffffffffffffffffffffffffffffffffffffffff1614610cb3576040517f08c379a0000000000000000000000000000000000000000000000000000000008152600401610caa90614c8f565b60405180910390fd5b610cbb611a4c565b73ffffffffffffffffffffffffffffffffffffffff163373ffffffffffffffffffffffffffffffffffffffff1614610d28576040517f08c379a0000000000000000000000000000000000000000000000000000000008152600401610d1f90615200565b60405180910390fd5b610d3788888888888787612db2565b610d66610d516001600854610d4c919061524f565b6117d6565b846001600854610d61919061524f565b611491565b610d85610d71611a4c565b6001600854610d80919061524f565b6109fb565b8273ffffffffffffffffffffffffffffffffffffffff167fd014ca8a34e578fc67a737f01dcbec7772db846b0596145a838e01949908b8f56001600854610dcc919061524f565b600b6001600854610ddd919061524f565b81548110610dee57610ded615283565b5b9060005260206000209060080201600401600b6001600854610e10919061524f565b81548110610e2157610e20615283565b5b906000526020600020906008020160050154604051610e4293929190615347565b60405180910390a25050505050505050565b80610e5d612b6a565b73ffffffffffffffffffffffffffffffffffffffff16610e7b611a4c565b73ffffffffffffffffffffffffffffffffffffffff161480610ed75750610ea0612b6a565b73ffffffffffffffffffffffffffffffffffffffff16610ebf826117d6565b73ffffffffffffffffffffffffffffffffffffffff16145b80610f1557503373ffffffffffffffffffffffffffffffffffffffff16610efd82610976565b73ffffffffffffffffffffffffffffffffffffffff16145b80610f2e5750610f2d610f27826117d6565b336122bf565b5b610f6d576040517f08c379a0000000000000000000000000000000000000000000000000000000008152600401610f6490614fb8565b60405180910390fd5b610f7e610f78612b6a565b83612bde565b610fbd576040517f08c379a0000000000000000000000000000000000000000000000000000000008152600401610fb4906153f7565b60405180910390fd5b610fc8848484612f6f565b50505050565b80610fd7612b6a565b73ffffffffffffffffffffffffffffffffffffffff16610ff5611a4c565b73ffffffffffffffffffffffffffffffffffffffff161480611051575061101a612b6a565b73ffffffffffffffffffffffffffffffffffffffff16611039826117d6565b73ffffffffffffffffffffffffffffffffffffffff16145b8061108f57503373ffffffffffffffffffffffffffffffffffffffff1661107782610976565b73ffffffffffffffffffffffffffffffffffffffff16145b806110a857506110a76110a1826117d6565b336122bf565b5b6110e7576040517f08c379a00000000000000000000000000000000000000000000000000000000081526004016110de90614fb8565b60405180910390fd5b6110f082612b72565b61112f576040517f08c379a000000000000000000000000000000000000000000000000000000000815260040161112690615024565b60405180910390fd5b61114061113a612b6a565b83612bde565b61117f576040517f08c379a0000000000000000000000000000000000000000000000000000000008152600401611176906153f7565b60405180910390fd5b611188826131d5565b5050565b611194612b6a565b73ffffffffffffffffffffffffffffffffffffffff166111b2611a4c565b73ffffffffffffffffffffffffffffffffffffffff1614611208576040517f08c379a00000000000000000000000000000000000000000000000000000000081526004016111ff90614c8f565b60405180910390fd5b611210611a4c565b73ffffffffffffffffffffffffffffffffffffffff163373ffffffffffffffffffffffffffffffffffffffff161461127d576040517f08c379a000000000000000000000000000000000000000000000000000000000815260040161127490615200565b60405180910390fd5b600061128d8c8c8c8c89896107e1565b905061129e81898989898888612db2565b6112cd6112b860016008546112b3919061524f565b6117d6565b8560016008546112c8919061524f565b611491565b6112ec6112d8611a4c565b60016008546112e7919061524f565b6109fb565b8373ffffffffffffffffffffffffffffffffffffffff167fd014ca8a34e578fc67a737f01dcbec7772db846b0596145a838e01949908b8f56001600854611333919061524f565b600b6001600854611344919061524f565b8154811061135557611354615283565b5b9060005260206000209060080201600401600b6001600854611377919061524f565b8154811061138857611387615283565b5b9060005260206000209060080201600501546040516113a993929190615347565b60405180910390a2505050505050505050505050565b6113c7612b6a565b73ffffffffffffffffffffffffffffffffffffffff166113e5611a4c565b73ffffffffffffffffffffffffffffffffffffffff161461143b576040517f08c379a000000000000000000000000000000000000000000000000000000000815260040161143290614c8f565b60405180910390fd5b6000611445611a4c565b90508073ffffffffffffffffffffffffffffffffffffffff166108fc479081150290604051600060405180830381858888f1935050505015801561148d573d6000803e3d6000fd5b5050565b6114ac83838360405180602001604052806000815250611b3e565b505050565b60006114bb613ca1565b60005b600b80549050811015611732576114d481612b72565b1561171f5783600b82815481106114ee576114ed615283565b5b9060005260206000209060080201600501540361171e57600b818154811061151957611518615283565b5b90600052602060002090600802016040518061010001604052908160008201548152602001600182015481526020016002820154815260200160038201805461156190614e83565b80601f016020809104026020016040519081016040528092919081815260200182805461158d90614e83565b80156115da5780601f106115af576101008083540402835291602001916115da565b820191906000526020600020905b8154815290600101906020018083116115bd57829003601f168201915b505050505081526020016004820180546115f390614e83565b80601f016020809104026020016040519081016040528092919081815260200182805461161f90614e83565b801561166c5780601f106116415761010080835404028352916020019161166c565b820191906000526020600020905b81548152906001019060200180831161164f57829003601f168201915b50505050508152602001600582015481526020016006820154815260200160078201805461169990614e83565b80601f01602080910402602001604051908101604052809291908181526020018280546116c590614e83565b80156117125780601f106116e757610100808354040283529160200191611712565b820191906000526020600020905b8154815290600101906020018083116116f557829003601f168201915b50505050508152505091505b5b808061172a90615417565b9150506114be565b50600060028a8a8a8a883360405160200161175296959493929190614d54565b60405160208183030381529060405260405161176e9190614dfb565b602060405180830381855afa15801561178b573d6000803e3d6000fd5b5050506040513d601f19601f820116820180604052508101906117ae9190614e27565b905060006117bd828888613228565b9050826020015181149350505050979650505050505050565b6000806002600084815260200190815260200160002060009054906101000a900473ffffffffffffffffffffffffffffffffffffffff169050600073ffffffffffffffffffffffffffffffffffffffff168173ffffffffffffffffffffffffffffffffffffffff160361187e576040517f08c379a0000000000000000000000000000000000000000000000000000000008152600401611875906154d1565b60405180910390fd5b80915050919050565b60008073ffffffffffffffffffffffffffffffffffffffff168273ffffffffffffffffffffffffffffffffffffffff16036118f7576040517f08c379a00000000000000000000000000000000000000000000000000000000081526004016118ee90615563565b60405180910390fd5b600360008373ffffffffffffffffffffffffffffffffffffffff1673ffffffffffffffffffffffffffffffffffffffff168152602001908152602001600020549050919050565b611946612b6a565b73ffffffffffffffffffffffffffffffffffffffff16611964611a4c565b73ffffffffffffffffffffffffffffffffffffffff16146119ba576040517f08c379a00000000000000000000000000000000000000000000000000000000081526004016119b190614c8f565b60405180910390fd5b6119c4600061325e565b565b6119ce612b6a565b73ffffffffffffffffffffffffffffffffffffffff166119ec611a4c565b73ffffffffffffffffffffffffffffffffffffffff1614611a42576040517f08c379a0000000000000000000000000000000000000000000000000000000008152600401611a3990614c8f565b60405180910390fd5b8060098190555050565b6000600760009054906101000a900473ffffffffffffffffffffffffffffffffffffffff16905090565b606060018054611a8590614e83565b80601f0160208091040260200160405190810160405280929190818152602001828054611ab190614e83565b8015611afe5780601f10611ad357610100808354040283529160200191611afe565b820191906000526020600020905b815481529060010190602001808311611ae157829003601f168201915b5050505050905090565b600080600030905080611b19611a4c565b92509250509091565b60095481565b611b3a611b33612b6a565b8383613324565b5050565b81611b47612b6a565b73ffffffffffffffffffffffffffffffffffffffff16611b65611a4c565b73ffffffffffffffffffffffffffffffffffffffff161480611bc15750611b8a612b6a565b73ffffffffffffffffffffffffffffffffffffffff16611ba9826117d6565b73ffffffffffffffffffffffffffffffffffffffff16145b80611bff57503373ffffffffffffffffffffffffffffffffffffffff16611be782610976565b73ffffffffffffffffffffffffffffffffffffffff16145b80611c185750611c17611c11826117d6565b336122bf565b5b611c57576040517f08c379a0000000000000000000000000000000000000000000000000000000008152600401611c4e90614fb8565b60405180910390fd5b611c68611c62612b6a565b84612bde565b611ca7576040517f08c379a0000000000000000000000000000000000000000000000000000000008152600401611c9e906153f7565b60405180910390fd5b611cb385858585613490565b5050505050565b6060611cc4612b6a565b73ffffffffffffffffffffffffffffffffffffffff16611ce2611a4c565b73ffffffffffffffffffffffffffffffffffffffff1614611d38576040517f08c379a0000000000000000000000000000000000000000000000000000000008152600401611d2f90614c8f565b60405180910390fd5b600b805480602002602001604051908101604052809291908181526020016000905b82821015611f75578382906000526020600020906008020160405180610100016040529081600082015481526020016001820154815260200160028201548152602001600382018054611dac90614e83565b80601f0160208091040260200160405190810160405280929190818152602001828054611dd890614e83565b8015611e255780601f10611dfa57610100808354040283529160200191611e25565b820191906000526020600020905b815481529060010190602001808311611e0857829003601f168201915b50505050508152602001600482018054611e3e90614e83565b80601f0160208091040260200160405190810160405280929190818152602001828054611e6a90614e83565b8015611eb75780601f10611e8c57610100808354040283529160200191611eb7565b820191906000526020600020905b815481529060010190602001808311611e9a57829003601f168201915b505050505081526020016005820154815260200160068201548152602001600782018054611ee490614e83565b80601f0160208091040260200160405190810160405280929190818152602001828054611f1090614e83565b8015611f5d5780601f10611f3257610100808354040283529160200191611f5d565b820191906000526020600020905b815481529060010190602001808311611f4057829003601f168201915b50505050508152505081526020019060010190611d5a565b50505050905090565b6060611f8982612b72565b611fc8576040517f08c379a0000000000000000000000000000000000000000000000000000000008152600401611fbf906155f5565b60405180910390fd5b6000600660008481526020019081526020016000208054611fe890614e83565b80601f016020809104026020016040519081016040528092919081815260200182805461201490614e83565b80156120615780601f1061203657610100808354040283529160200191612061565b820191906000526020600020905b81548152906001019060200180831161204457829003601f168201915b5050505050905060006120726134ec565b905060008151036120875781925050506120ca565b6000825111156120bc5780826040516020016120a4929190615615565b604051602081830303815290604052925050506120ca565b6120c584613503565b925050505b919050565b600b81815481106120df57600080fd5b906000526020600020906008020160009150905080600001549080600101549080600201549080600301805461211490614e83565b80601f016020809104026020016040519081016040528092919081815260200182805461214090614e83565b801561218d5780601f106121625761010080835404028352916020019161218d565b820191906000526020600020905b81548152906001019060200180831161217057829003601f168201915b5050505050908060040180546121a290614e83565b80601f01602080910402602001604051908101604052809291908181526020018280546121ce90614e83565b801561221b5780601f106121f05761010080835404028352916020019161221b565b820191906000526020600020905b8154815290600101906020018083116121fe57829003601f168201915b50505050509080600501549080600601549080600701805461223c90614e83565b80601f016020809104026020016040519081016040528092919081815260200182805461226890614e83565b80156122b55780601f1061228a576101008083540402835291602001916122b5565b820191906000526020600020905b81548152906001019060200180831161229857829003601f168201915b5050505050905088565b6000600560008473ffffffffffffffffffffffffffffffffffffffff1673ffffffffffffffffffffffffffffffffffffffff16815260200190815260200160002060008373ffffffffffffffffffffffffffffffffffffffff1673ffffffffffffffffffffffffffffffffffffffff16815260200190815260200160002060009054906101000a900460ff16905092915050565b6060600061236033611887565b67ffffffffffffffff81111561237957612378613eb6565b5b6040519080825280602002602001820160405280156123b257816020015b61239f613ca1565b8152602001906001900390816123975790505b5090506000805b600b80549050811015612666576123cf81612b72565b15612653573373ffffffffffffffffffffffffffffffffffffffff166123f4826117d6565b73ffffffffffffffffffffffffffffffffffffffff160361265257600b818154811061242357612422615283565b5b90600052602060002090600802016040518061010001604052908160008201548152602001600182015481526020016002820154815260200160038201805461246b90614e83565b80601f016020809104026020016040519081016040528092919081815260200182805461249790614e83565b80156124e45780601f106124b9576101008083540402835291602001916124e4565b820191906000526020600020905b8154815290600101906020018083116124c757829003601f168201915b505050505081526020016004820180546124fd90614e83565b80601f016020809104026020016040519081016040528092919081815260200182805461252990614e83565b80156125765780601f1061254b57610100808354040283529160200191612576565b820191906000526020600020905b81548152906001019060200180831161255957829003601f168201915b5050505050815260200160058201548152602001600682015481526020016007820180546125a390614e83565b80601f01602080910402602001604051908101604052809291908181526020018280546125cf90614e83565b801561261c5780601f106125f15761010080835404028352916020019161261c565b820191906000526020600020905b8154815290600101906020018083116125ff57829003601f168201915b50505050508152505083838151811061263857612637615283565b5b6020026020010181905250818061264e90615417565b9250505b5b808061265e90615417565b9150506123b9565b50819250505090565b612677612b6a565b73ffffffffffffffffffffffffffffffffffffffff16612695611a4c565b73ffffffffffffffffffffffffffffffffffffffff16146126eb576040517f08c379a00000000000000000000000000000000000000000000000000000000081526004016126e290614c8f565b60405180910390fd5b600073ffffffffffffffffffffffffffffffffffffffff168173ffffffffffffffffffffffffffffffffffffffff160361275a576040517f08c379a0000000000000000000000000000000000000000000000000000000008152600401612751906156ab565b60405180910390fd5b6127638161325e565b50565b6060612770612b6a565b73ffffffffffffffffffffffffffffffffffffffff1661278e611a4c565b73ffffffffffffffffffffffffffffffffffffffff16146127e4576040517f08c379a00000000000000000000000000000000000000000000000000000000081526004016127db90614c8f565b60405180910390fd5b60006127ef83611887565b67ffffffffffffffff81111561280857612807613eb6565b5b60405190808252806020026020018201604052801561284157816020015b61282e613ca1565b8152602001906001900390816128265790505b5090506000805b600b80549050811015612af55761285e81612b72565b15612ae2578473ffffffffffffffffffffffffffffffffffffffff16612883826117d6565b73ffffffffffffffffffffffffffffffffffffffff1603612ae157600b81815481106128b2576128b1615283565b5b9060005260206000209060080201604051806101000160405290816000820154815260200160018201548152602001600282015481526020016003820180546128fa90614e83565b80601f016020809104026020016040519081016040528092919081815260200182805461292690614e83565b80156129735780601f1061294857610100808354040283529160200191612973565b820191906000526020600020905b81548152906001019060200180831161295657829003601f168201915b5050505050815260200160048201805461298c90614e83565b80601f01602080910402602001604051908101604052809291908181526020018280546129b890614e83565b8015612a055780601f106129da57610100808354040283529160200191612a05565b820191906000526020600020905b8154815290600101906020018083116129e857829003601f168201915b505050505081526020016005820154815260200160068201548152602001600782018054612a3290614e83565b80601f0160208091040260200160405190810160405280929190818152602001828054612a5e90614e83565b8015612aab5780601f10612a8057610100808354040283529160200191612aab565b820191906000526020600020905b815481529060010190602001808311612a8e57829003601f168201915b505050505081525050838381518110612ac757612ac6615283565b5b60200260200101819052508180612add90615417565b9250505b5b8080612aed90615417565b915050612848565b508192505050919050565b60007f01ffc9a7000000000000000000000000000000000000000000000000000000007bffffffffffffffffffffffffffffffffffffffffffffffffffffffff1916827bffffffffffffffffffffffffffffffffffffffffffffffffffffffff1916149050919050565b600033905090565b60008073ffffffffffffffffffffffffffffffffffffffff166002600084815260200190815260200160002060009054906101000a900473ffffffffffffffffffffffffffffffffffffffff1673ffffffffffffffffffffffffffffffffffffffff1614159050919050565b6000612be982612b72565b612c28576040517f08c379a0000000000000000000000000000000000000000000000000000000008152600401612c1f9061573d565b60405180910390fd5b6000612c33836117d6565b90508073ffffffffffffffffffffffffffffffffffffffff168473ffffffffffffffffffffffffffffffffffffffff161480612ca257508373ffffffffffffffffffffffffffffffffffffffff16612c8a84610976565b73ffffffffffffffffffffffffffffffffffffffff16145b80612cb35750612cb281856122bf565b5b80612cf057508373ffffffffffffffffffffffffffffffffffffffff16612cd8611a4c565b73ffffffffffffffffffffffffffffffffffffffff16145b91505092915050565b816004600083815260200190815260200160002060006101000a81548173ffffffffffffffffffffffffffffffffffffffff021916908373ffffffffffffffffffffffffffffffffffffffff160217905550808273ffffffffffffffffffffffffffffffffffffffff16612d6c836117d6565b73ffffffffffffffffffffffffffffffffffffffff167f8c5be1e5ebec7d5bd14f71427d1e84f3dd0314c0f7b2291e5b200ac8c7c3b92560405160405180910390a45050565b612dba612b6a565b73ffffffffffffffffffffffffffffffffffffffff16612dd8611a4c565b73ffffffffffffffffffffffffffffffffffffffff1614612e2e576040517f08c379a0000000000000000000000000000000000000000000000000000000008152600401612e2590614c8f565b60405180910390fd5b6000612e3b888888613228565b905060006040518061010001604052806008548152602001838152602001898152602001888152602001878152602001868152602001848152602001858152509050600b8190806001815401808255809150506001900390600052602060002090600802016000909190919091506000820151816000015560208201518160010155604082015181600201556060820151816003019080519060200190612ee3929190613ce9565b506080820151816004019080519060200190612f00929190613ce9565b5060a0820151816005015560c0820151816006015560e0820151816007019080519060200190612f31929190613ce9565b505050612f40336008546135aa565b612f4c600854856135c8565b60086000815480929190612f5f90615417565b9190505550505050505050505050565b8273ffffffffffffffffffffffffffffffffffffffff16612f8f826117d6565b73ffffffffffffffffffffffffffffffffffffffff1614612fe5576040517f08c379a0000000000000000000000000000000000000000000000000000000008152600401612fdc906157cf565b60405180910390fd5b600073ffffffffffffffffffffffffffffffffffffffff168273ffffffffffffffffffffffffffffffffffffffff1603613054576040517f08c379a000000000000000000000000000000000000000000000000000000000815260040161304b90615861565b60405180910390fd5b61305f83838361363c565b61306a600082612cf9565b6001600360008573ffffffffffffffffffffffffffffffffffffffff1673ffffffffffffffffffffffffffffffffffffffff16815260200190815260200160002060008282546130ba919061524f565b925050819055506001600360008473ffffffffffffffffffffffffffffffffffffffff1673ffffffffffffffffffffffffffffffffffffffff16815260200190815260200160002060008282546131119190615881565b92505081905550816002600083815260200190815260200160002060006101000a81548173ffffffffffffffffffffffffffffffffffffffff021916908373ffffffffffffffffffffffffffffffffffffffff160217905550808273ffffffffffffffffffffffffffffffffffffffff168473ffffffffffffffffffffffffffffffffffffffff167fddf252ad1be2c89b69c2b068fc378daa952ba7f163c4a11628f55a4df523b3ef60405160405180910390a46131d0838383613641565b505050565b6131de81613646565b60006006600083815260200190815260200160002080546131fe90614e83565b905014613225576006600082815260200190815260200160002060006132249190613d6f565b5b50565b600083838360405160200161323f939291906158f8565b6040516020818303038152906040528051906020012090509392505050565b6000600760009054906101000a900473ffffffffffffffffffffffffffffffffffffffff16905081600760006101000a81548173ffffffffffffffffffffffffffffffffffffffff021916908373ffffffffffffffffffffffffffffffffffffffff1602179055508173ffffffffffffffffffffffffffffffffffffffff168173ffffffffffffffffffffffffffffffffffffffff167f8be0079c531659141344cd1fd0a4f28419497f9722a3daafe3b4186f6b6457e060405160405180910390a35050565b8173ffffffffffffffffffffffffffffffffffffffff168373ffffffffffffffffffffffffffffffffffffffff1603613392576040517f08c379a00000000000000000000000000000000000000000000000000000000081526004016133899061597d565b60405180910390fd5b80600560008573ffffffffffffffffffffffffffffffffffffffff1673ffffffffffffffffffffffffffffffffffffffff16815260200190815260200160002060008473ffffffffffffffffffffffffffffffffffffffff1673ffffffffffffffffffffffffffffffffffffffff16815260200190815260200160002060006101000a81548160ff0219169083151502179055508173ffffffffffffffffffffffffffffffffffffffff168373ffffffffffffffffffffffffffffffffffffffff167f17307eab39ab6107e8899845ad3d59bd9653f200f220920489ca2b5937696c31836040516134839190613e80565b60405180910390a3505050565b61349b848484612f6f565b6134a784848484613763565b6134e6576040517f08c379a00000000000000000000000000000000000000000000000000000000081526004016134dd90615a0f565b60405180910390fd5b50505050565b606060405180602001604052806000815250905090565b606061350e82612b72565b61354d576040517f08c379a000000000000000000000000000000000000000000000000000000000815260040161354490615aa1565b60405180910390fd5b60006135576134ec565b9050600081511161357757604051806020016040528060008152506135a2565b80613581846138ea565b604051602001613592929190615615565b6040516020818303038152906040525b915050919050565b6135c4828260405180602001604052806000815250613a4a565b5050565b6135d182612b72565b613610576040517f08c379a000000000000000000000000000000000000000000000000000000000815260040161360790615b33565b60405180910390fd5b80600660008481526020019081526020016000209080519060200190613637929190613ce9565b505050565b505050565b505050565b6000613651826117d6565b905061365f8160008461363c565b61366a600083612cf9565b6001600360008373ffffffffffffffffffffffffffffffffffffffff1673ffffffffffffffffffffffffffffffffffffffff16815260200190815260200160002060008282546136ba919061524f565b925050819055506002600083815260200190815260200160002060006101000a81549073ffffffffffffffffffffffffffffffffffffffff021916905581600073ffffffffffffffffffffffffffffffffffffffff168273ffffffffffffffffffffffffffffffffffffffff167fddf252ad1be2c89b69c2b068fc378daa952ba7f163c4a11628f55a4df523b3ef60405160405180910390a461375f81600084613641565b5050565b60006137848473ffffffffffffffffffffffffffffffffffffffff16613aa5565b156138dd578373ffffffffffffffffffffffffffffffffffffffff1663150b7a026137ad612b6a565b8786866040518563ffffffff1660e01b81526004016137cf9493929190615b9d565b6020604051808303816000875af192505050801561380b57506040513d601f19601f820116820180604052508101906138089190615bfe565b60015b61388d573d806000811461383b576040519150601f19603f3d011682016040523d82523d6000602084013e613840565b606091505b506000815103613885576040517f08c379a000000000000000000000000000000000000000000000000000000000815260040161387c90615a0f565b60405180910390fd5b805181602001fd5b63150b7a0260e01b7bffffffffffffffffffffffffffffffffffffffffffffffffffffffff1916817bffffffffffffffffffffffffffffffffffffffffffffffffffffffff1916149150506138e2565b600190505b949350505050565b606060008203613931576040518060400160405280600181526020017f30000000000000000000000000000000000000000000000000000000000000008152509050613a45565b600082905060005b6000821461396357808061394c90615417565b915050600a8261395c9190615c5a565b9150613939565b60008167ffffffffffffffff81111561397f5761397e613eb6565b5b6040519080825280601f01601f1916602001820160405280156139b15781602001600182028036833780820191505090505b5090505b60008514613a3e576001826139ca919061524f565b9150600a856139d99190615c8b565b60306139e59190615881565b60f81b8183815181106139fb576139fa615283565b5b60200101907effffffffffffffffffffffffffffffffffffffffffffffffffffffffffffff1916908160001a905350600a85613a379190615c5a565b94506139b5565b8093505050505b919050565b613a548383613ac8565b613a616000848484613763565b613aa0576040517f08c379a0000000000000000000000000000000000000000000000000000000008152600401613a9790615a0f565b60405180910390fd5b505050565b6000808273ffffffffffffffffffffffffffffffffffffffff163b119050919050565b600073ffffffffffffffffffffffffffffffffffffffff168273ffffffffffffffffffffffffffffffffffffffff1603613b37576040517f08c379a0000000000000000000000000000000000000000000000000000000008152600401613b2e90615d08565b60405180910390fd5b613b4081612b72565b15613b80576040517f08c379a0000000000000000000000000000000000000000000000000000000008152600401613b7790615d74565b60405180910390fd5b613b8c6000838361363c565b6001600360008473ffffffffffffffffffffffffffffffffffffffff1673ffffffffffffffffffffffffffffffffffffffff1681526020019081526020016000206000828254613bdc9190615881565b92505081905550816002600083815260200190815260200160002060006101000a81548173ffffffffffffffffffffffffffffffffffffffff021916908373ffffffffffffffffffffffffffffffffffffffff160217905550808273ffffffffffffffffffffffffffffffffffffffff16600073ffffffffffffffffffffffffffffffffffffffff167fddf252ad1be2c89b69c2b068fc378daa952ba7f163c4a11628f55a4df523b3ef60405160405180910390a4613c9d60008383613641565b5050565b60405180610100016040528060008152602001600080191681526020016000815260200160608152602001606081526020016000815260200160008152602001606081525090565b828054613cf590614e83565b90600052602060002090601f016020900481019282613d175760008555613d5e565b82601f10613d3057805160ff1916838001178555613d5e565b82800160010185558215613d5e579182015b82811115613d5d578251825591602001919060010190613d42565b5b509050613d6b9190613daf565b5090565b508054613d7b90614e83565b6000825580601f10613d8d5750613dac565b601f016020900490600052602060002090810190613dab9190613daf565b5b50565b5b80821115613dc8576000816000905550600101613db0565b5090565b6000604051905090565b600080fd5b600080fd5b60007fffffffff0000000000000000000000000000000000000000000000000000000082169050919050565b613e1581613de0565b8114613e2057600080fd5b50565b600081359050613e3281613e0c565b92915050565b600060208284031215613e4e57613e4d613dd6565b5b6000613e5c84828501613e23565b91505092915050565b60008115159050919050565b613e7a81613e65565b82525050565b6000602082019050613e956000830184613e71565b92915050565b600080fd5b600080fd5b6000601f19601f8301169050919050565b7f4e487b7100000000000000000000000000000000000000000000000000000000600052604160045260246000fd5b613eee82613ea5565b810181811067ffffffffffffffff82111715613f0d57613f0c613eb6565b5b80604052505050565b6000613f20613dcc565b9050613f2c8282613ee5565b919050565b600067ffffffffffffffff821115613f4c57613f4b613eb6565b5b613f5582613ea5565b9050602081019050919050565b82818337600083830152505050565b6000613f84613f7f84613f31565b613f16565b905082815260208101848484011115613fa057613f9f613ea0565b5b613fab848285613f62565b509392505050565b600082601f830112613fc857613fc7613e9b565b5b8135613fd8848260208601613f71565b91505092915050565b6000819050919050565b613ff481613fe1565b8114613fff57600080fd5b50565b60008135905061401181613feb565b92915050565b600073ffffffffffffffffffffffffffffffffffffffff82169050919050565b600061404282614017565b9050919050565b61405281614037565b811461405d57600080fd5b50565b60008135905061406f81614049565b92915050565b60008060008060008060c0878903121561409257614091613dd6565b5b600087013567ffffffffffffffff8111156140b0576140af613ddb565b5b6140bc89828a01613fb3565b965050602087013567ffffffffffffffff8111156140dd576140dc613ddb565b5b6140e989828a01613fb3565b955050604087013567ffffffffffffffff81111561410a57614109613ddb565b5b61411689828a01613fb3565b945050606087013567ffffffffffffffff81111561413757614136613ddb565b5b61414389828a01613fb3565b935050608061415489828a01614002565b92505060a061416589828a01614060565b9150509295509295509295565b6000819050919050565b61418581614172565b82525050565b60006020820190506141a0600083018461417c565b92915050565b600081519050919050565b600082825260208201905092915050565b60005b838110156141e05780820151818401526020810190506141c5565b838111156141ef576000848401525b50505050565b6000614200826141a6565b61420a81856141b1565b935061421a8185602086016141c2565b61422381613ea5565b840191505092915050565b6000602082019050818103600083015261424881846141f5565b905092915050565b60006020828403121561426657614265613dd6565b5b600061427484828501614002565b91505092915050565b61428681614037565b82525050565b60006020820190506142a1600083018461427d565b92915050565b600080604083850312156142be576142bd613dd6565b5b60006142cc85828601614060565b92505060206142dd85828601614002565b9150509250929050565b6142f081614172565b81146142fb57600080fd5b50565b60008135905061430d816142e7565b92915050565b600080600080600080600080610100898b03121561433457614333613dd6565b5b60006143428b828c016142fe565b98505060206143538b828c01614002565b975050604089013567ffffffffffffffff81111561437457614373613ddb565b5b6143808b828c01613fb3565b965050606089013567ffffffffffffffff8111156143a1576143a0613ddb565b5b6143ad8b828c01613fb3565b95505060806143be8b828c01614002565b94505060a06143cf8b828c01614060565b93505060c089013567ffffffffffffffff8111156143f0576143ef613ddb565b5b6143fc8b828c01613fb3565b92505060e061440d8b828c01614002565b9150509295985092959890939650565b60008060006060848603121561443657614435613dd6565b5b600061444486828701614060565b935050602061445586828701614060565b925050604061446686828701614002565b9150509250925092565b60008060008060008060008060008060006101608c8e03121561449657614495613dd6565b5b60008c013567ffffffffffffffff8111156144b4576144b3613ddb565b5b6144c08e828f01613fb3565b9b505060208c013567ffffffffffffffff8111156144e1576144e0613ddb565b5b6144ed8e828f01613fb3565b9a505060408c013567ffffffffffffffff81111561450e5761450d613ddb565b5b61451a8e828f01613fb3565b99505060608c013567ffffffffffffffff81111561453b5761453a613ddb565b5b6145478e828f01613fb3565b98505060806145588e828f01614002565b97505060a08c013567ffffffffffffffff81111561457957614578613ddb565b5b6145858e828f01613fb3565b96505060c08c013567ffffffffffffffff8111156145a6576145a5613ddb565b5b6145b28e828f01613fb3565b95505060e06145c38e828f01614002565b9450506101006145d58e828f01614060565b9350506101208c013567ffffffffffffffff8111156145f7576145f6613ddb565b5b6146038e828f01613fb3565b9250506101406146158e828f01614002565b9150509295989b509295989b9093969950565b600080600080600080600060e0888a03121561464757614646613dd6565b5b600088013567ffffffffffffffff81111561466557614664613ddb565b5b6146718a828b01613fb3565b975050602088013567ffffffffffffffff81111561469257614691613ddb565b5b61469e8a828b01613fb3565b965050604088013567ffffffffffffffff8111156146bf576146be613ddb565b5b6146cb8a828b01613fb3565b955050606088013567ffffffffffffffff8111156146ec576146eb613ddb565b5b6146f88a828b01613fb3565b94505060806147098a828b01614002565b93505060a088013567ffffffffffffffff81111561472a57614729613ddb565b5b6147368a828b01613fb3565b92505060c06147478a828b01614002565b91505092959891949750929550565b60006020828403121561476c5761476b613dd6565b5b600061477a84828501614060565b91505092915050565b61478c81613fe1565b82525050565b60006020820190506147a76000830184614783565b92915050565b60006040820190506147c2600083018561427d565b6147cf602083018461427d565b9392505050565b6147df81613e65565b81146147ea57600080fd5b50565b6000813590506147fc816147d6565b92915050565b6000806040838503121561481957614818613dd6565b5b600061482785828601614060565b9250506020614838858286016147ed565b9150509250929050565b600067ffffffffffffffff82111561485d5761485c613eb6565b5b61486682613ea5565b9050602081019050919050565b600061488661488184614842565b613f16565b9050828152602081018484840111156148a2576148a1613ea0565b5b6148ad848285613f62565b509392505050565b600082601f8301126148ca576148c9613e9b565b5b81356148da848260208601614873565b91505092915050565b600080600080608085870312156148fd576148fc613dd6565b5b600061490b87828801614060565b945050602061491c87828801614060565b935050604061492d87828801614002565b925050606085013567ffffffffffffffff81111561494e5761494d613ddb565b5b61495a878288016148b5565b91505092959194509250565b600081519050919050565b600082825260208201905092915050565b6000819050602082019050919050565b61499b81613fe1565b82525050565b6149aa81614172565b82525050565b600082825260208201905092915050565b60006149cc826141a6565b6149d681856149b0565b93506149e68185602086016141c2565b6149ef81613ea5565b840191505092915050565b600061010083016000830151614a136000860182614992565b506020830151614a2660208601826149a1565b506040830151614a396040860182614992565b5060608301518482036060860152614a5182826149c1565b91505060808301518482036080860152614a6b82826149c1565b91505060a0830151614a8060a0860182614992565b5060c0830151614a9360c0860182614992565b5060e083015184820360e0860152614aab82826149c1565b9150508091505092915050565b6000614ac483836149fa565b905092915050565b6000602082019050919050565b6000614ae482614966565b614aee8185614971565b935083602082028501614b0085614982565b8060005b85811015614b3c5784840389528151614b1d8582614ab8565b9450614b2883614acc565b925060208a01995050600181019050614b04565b50829750879550505050505092915050565b60006020820190508181036000830152614b688184614ad9565b905092915050565b600061010082019050614b86600083018b614783565b614b93602083018a61417c565b614ba06040830189614783565b8181036060830152614bb281886141f5565b90508181036080830152614bc681876141f5565b9050614bd560a0830186614783565b614be260c0830185614783565b81810360e0830152614bf481846141f5565b90509998505050505050505050565b60008060408385031215614c1a57614c19613dd6565b5b6000614c2885828601614060565b9250506020614c3985828601614060565b9150509250929050565b7f4f776e61626c653a2063616c6c6572206973206e6f7420746865206f776e6572600082015250565b6000614c796020836141b1565b9150614c8482614c43565b602082019050919050565b60006020820190508181036000830152614ca881614c6c565b9050919050565b600081905092915050565b6000614cc5826141a6565b614ccf8185614caf565b9350614cdf8185602086016141c2565b80840191505092915050565b6000819050919050565b614d06614d0182613fe1565b614ceb565b82525050565b60008160601b9050919050565b6000614d2482614d0c565b9050919050565b6000614d3682614d19565b9050919050565b614d4e614d4982614037565b614d2b565b82525050565b6000614d608289614cba565b9150614d6c8288614cba565b9150614d788287614cba565b9150614d848286614cba565b9150614d908285614cf5565b602082019150614da08284614d3d565b601482019150819050979650505050505050565b600081519050919050565b600081905092915050565b6000614dd582614db4565b614ddf8185614dbf565b9350614def8185602086016141c2565b80840191505092915050565b6000614e078284614dca565b915081905092915050565b600081519050614e21816142e7565b92915050565b600060208284031215614e3d57614e3c613dd6565b5b6000614e4b84828501614e12565b91505092915050565b7f4e487b7100000000000000000000000000000000000000000000000000000000600052602260045260246000fd5b60006002820490506001821680614e9b57607f821691505b602082108103614eae57614ead614e54565b5b50919050565b7f4552433732313a20617070726f76656420717565727920666f72206e6f6e657860008201527f697374656e7420746f6b656e0000000000000000000000000000000000000000602082015250565b6000614f10602c836141b1565b9150614f1b82614eb4565b604082019050919050565b60006020820190508181036000830152614f3f81614f03565b9050919050565b7f4f776e61626c653a2063616c6c6572206973206e6f7420746865206f776e657260008201527f206f6620746f6b656e206f7220636f6e74726163740000000000000000000000602082015250565b6000614fa26035836141b1565b9150614fad82614f46565b604082019050919050565b60006020820190508181036000830152614fd181614f95565b9050919050565b7f4e6f74206578697374696e6720546f6b656e0000000000000000000000000000600082015250565b600061500e6012836141b1565b915061501982614fd8565b602082019050919050565b6000602082019050818103600083015261503d81615001565b9050919050565b7f4552433732313a20617070726f76616c20746f2063757272656e74206f776e6560008201527f7200000000000000000000000000000000000000000000000000000000000000602082015250565b60006150a06021836141b1565b91506150ab82615044565b604082019050919050565b600060208201905081810360008301526150cf81615093565b9050919050565b7f4552433732313a207472616e736665722063616c6c6572206973206e6f74206f60008201527f776e65722c2020636f6e7472616374206f776e65726e6f7220617070726f766560208201527f6400000000000000000000000000000000000000000000000000000000000000604082015250565b60006151586041836141b1565b9150615163826150d6565b606082019050919050565b600060208201905081810360008301526151878161514b565b9050919050565b7f4f6e6c79206f776e65722077616c6c657420616c6c6f77656420746f206d696e60008201527f74204e4654206365727469666963617465730000000000000000000000000000602082015250565b60006151ea6032836141b1565b91506151f58261518e565b604082019050919050565b60006020820190508181036000830152615219816151dd565b9050919050565b7f4e487b7100000000000000000000000000000000000000000000000000000000600052601160045260246000fd5b600061525a82613fe1565b915061526583613fe1565b92508282101561527857615277615220565b5b828203905092915050565b7f4e487b7100000000000000000000000000000000000000000000000000000000600052603260045260246000fd5b60008190508160005260206000209050919050565b600081546152d481614e83565b6152de81866141b1565b945060018216600081146152f9576001811461530b5761533e565b60ff198316865260208601935061533e565b615314856152b2565b60005b8381101561533657815481890152600182019150602081019050615317565b808801955050505b50505092915050565b600060608201905061535c6000830186614783565b818103602083015261536e81856152c7565b905061537d6040830184614783565b949350505050565b7f4552433732313a207472616e736665722063616c6c6572206973206e6f74206f60008201527f776e6572206e6f7220617070726f766564000000000000000000000000000000602082015250565b60006153e16031836141b1565b91506153ec82615385565b604082019050919050565b60006020820190508181036000830152615410816153d4565b9050919050565b600061542282613fe1565b91507fffffffffffffffffffffffffffffffffffffffffffffffffffffffffffffffff820361545457615453615220565b5b600182019050919050565b7f4552433732313a206f776e657220717565727920666f72206e6f6e657869737460008201527f656e7420746f6b656e0000000000000000000000000000000000000000000000602082015250565b60006154bb6029836141b1565b91506154c68261545f565b604082019050919050565b600060208201905081810360008301526154ea816154ae565b9050919050565b7f4552433732313a2062616c616e636520717565727920666f7220746865207a6560008201527f726f206164647265737300000000000000000000000000000000000000000000602082015250565b600061554d602a836141b1565b9150615558826154f1565b604082019050919050565b6000602082019050818103600083015261557c81615540565b9050919050565b7f45524337323155524953746f726167653a2055524920717565727920666f722060008201527f6e6f6e6578697374656e7420746f6b656e000000000000000000000000000000602082015250565b60006155df6031836141b1565b91506155ea82615583565b604082019050919050565b6000602082019050818103600083015261560e816155d2565b9050919050565b60006156218285614cba565b915061562d8284614cba565b91508190509392505050565b7f4f776e61626c653a206e6577206f776e657220697320746865207a65726f206160008201527f6464726573730000000000000000000000000000000000000000000000000000602082015250565b60006156956026836141b1565b91506156a082615639565b604082019050919050565b600060208201905081810360008301526156c481615688565b9050919050565b7f4552433732313a206f70657261746f7220717565727920666f72206e6f6e657860008201527f697374656e7420746f6b656e0000000000000000000000000000000000000000602082015250565b6000615727602c836141b1565b9150615732826156cb565b604082019050919050565b600060208201905081810360008301526157568161571a565b9050919050565b7f4552433732313a207472616e736665722066726f6d20696e636f72726563742060008201527f6f776e6572000000000000000000000000000000000000000000000000000000602082015250565b60006157b96025836141b1565b91506157c48261575d565b604082019050919050565b600060208201905081810360008301526157e8816157ac565b9050919050565b7f4552433732313a207472616e7366657220746f20746865207a65726f2061646460008201527f7265737300000000000000000000000000000000000000000000000000000000602082015250565b600061584b6024836141b1565b9150615856826157ef565b604082019050919050565b6000602082019050818103600083015261587a8161583e565b9050919050565b600061588c82613fe1565b915061589783613fe1565b9250827fffffffffffffffffffffffffffffffffffffffffffffffffffffffffffffffff038211156158cc576158cb615220565b5b828201905092915050565b6000819050919050565b6158f26158ed82614172565b6158d7565b82525050565b600061590482866158e1565b6020820191506159148285614cf5565b6020820191506159248284614cba565b9150819050949350505050565b7f4552433732313a20617070726f766520746f2063616c6c657200000000000000600082015250565b60006159676019836141b1565b915061597282615931565b602082019050919050565b600060208201905081810360008301526159968161595a565b9050919050565b7f4552433732313a207472616e7366657220746f206e6f6e20455243373231526560008201527f63656976657220696d706c656d656e7465720000000000000000000000000000602082015250565b60006159f96032836141b1565b9150615a048261599d565b604082019050919050565b60006020820190508181036000830152615a28816159ec565b9050919050565b7f4552433732314d657461646174613a2055524920717565727920666f72206e6f60008201527f6e6578697374656e7420746f6b656e0000000000000000000000000000000000602082015250565b6000615a8b602f836141b1565b9150615a9682615a2f565b604082019050919050565b60006020820190508181036000830152615aba81615a7e565b9050919050565b7f45524337323155524953746f726167653a2055524920736574206f66206e6f6e60008201527f6578697374656e7420746f6b656e000000000000000000000000000000000000602082015250565b6000615b1d602e836141b1565b9150615b2882615ac1565b604082019050919050565b60006020820190508181036000830152615b4c81615b10565b9050919050565b600082825260208201905092915050565b6000615b6f82614db4565b615b798185615b53565b9350615b898185602086016141c2565b615b9281613ea5565b840191505092915050565b6000608082019050615bb2600083018761427d565b615bbf602083018661427d565b615bcc6040830185614783565b8181036060830152615bde8184615b64565b905095945050505050565b600081519050615bf881613e0c565b92915050565b600060208284031215615c1457615c13613dd6565b5b6000615c2284828501615be9565b91505092915050565b7f4e487b7100000000000000000000000000000000000000000000000000000000600052601260045260246000fd5b6000615c6582613fe1565b9150615c7083613fe1565b925082615c8057615c7f615c2b565b5b828204905092915050565b6000615c9682613fe1565b9150615ca183613fe1565b925082615cb157615cb0615c2b565b5b828206905092915050565b7f4552433732313a206d696e7420746f20746865207a65726f2061646472657373600082015250565b6000615cf26020836141b1565b9150615cfd82615cbc565b602082019050919050565b60006020820190508181036000830152615d2181615ce5565b9050919050565b7f4552433732313a20746f6b656e20616c7265616479206d696e74656400000000600082015250565b6000615d5e601c836141b1565b9150615d6982615d28565b602082019050919050565b60006020820190508181036000830152615d8d81615d51565b905091905056fea26469706673582212204f72519ef77b860baa80e8489a8217c1a78715be3ed2afcdfaed1c244b1e420c64736f6c634300080d0033",
  "immutableReferences": {},
  "source": "// SPDX-License-Identifier: MIT\r\npragma solidity ^0.8.13;\r\n\r\nimport \"@openzeppelin/contracts/token/ERC721/extensions/ERC721URIStorage.sol\";\r\nimport \"@openzeppelin/contracts/access/Ownable.sol\";\r\n\r\ncontract RolexToken is ERC721URIStorage, Ownable {\r\n    // =====================================\r\n    // Initial Statements\r\n    // =====================================\r\n\r\n    constructor(string memory _name, string memory _symbol) \r\n        ERC721(_name, _symbol) {}\r\n    \r\n    \r\n    // NFT token counter\r\n    uint256 COUNTER;\r\n    \r\n\r\n    // Pricing of NFT Tokens (price of the rolex nft)\r\n    uint256 public price = 5000 wei;\r\n    uint256 levelUpPrice = 2500 wei;\r\n\r\n    struct ProductData {\r\n        uint256 id;\r\n        bytes32 privateKey;\r\n        uint256 numPedido;\r\n        string descripcion;\r\n        string modelo;\r\n        uint256 numeroSerie;\r\n        uint256 fechaVenta;\r\n        string tokenUri;\r\n    }\r\n\r\n    // Storage structure for keeping artworks\r\n    ProductData [] public product_works;\r\n\r\n    // Declaration of new ProductNFT event\r\n    event NewProductData (address indexed _owner, uint256 _id, string _modelo, uint256 _numSerie);\r\n\r\n    modifier onlyContractApprovedOrNFTOwner(uint256 tokenId) {\r\n        require(owner() == _msgSender() || ownerOf(tokenId) == _msgSender() || getApproved(tokenId) == msg.sender || isApprovedForAll(ownerOf(tokenId), msg.sender), \"Ownable: caller is not the owner of token or contract\");\r\n        _;\r\n    }\r\n\r\n    function _isApprovedOwnerOrContracOwner(address spender, uint256 tokenId) internal view returns (bool) {\r\n        require(_exists(tokenId), \"ERC721: operator query for nonexistent token\");\r\n        address ownerNFT = ERC721.ownerOf(tokenId);\r\n        return (spender == ownerNFT || getApproved(tokenId) == spender || isApprovedForAll(ownerNFT, spender) || owner() == spender);\r\n    }\r\n\r\n    function transferFrom(address from, address to, uint256 tokenId) public onlyContractApprovedOrNFTOwner(tokenId) override(ERC721)  {\r\n        require(_isApprovedOwnerOrContracOwner(_msgSender(), tokenId), \"ERC721: transfer caller is not owner nor approved\");\r\n        _transfer(from, to, tokenId);\r\n    }\r\n\r\n    function safeTransferFrom(\r\n        address from,\r\n        address to,\r\n        uint256 tokenId,\r\n        bytes memory _data\r\n    ) public onlyContractApprovedOrNFTOwner(tokenId) override(ERC721) {\r\n        require(_isApprovedOwnerOrContracOwner(_msgSender(), tokenId), \"ERC721: transfer caller is not owner nor approved\");\r\n        _safeTransfer(from, to, tokenId, _data);\r\n    }\r\n\r\n    function destroyCertificate(\r\n        uint256 tokenId\r\n    ) public onlyContractApprovedOrNFTOwner(tokenId) {\r\n        require(_exists(tokenId), \"Not existing Token\");\r\n        require(_isApprovedOwnerOrContracOwner(_msgSender(), tokenId), \"ERC721: transfer caller is not owner nor approved\");\r\n        _burn(tokenId);\r\n        \r\n    }\r\n\r\n    function approve(address to, uint256 tokenId) public onlyContractApprovedOrNFTOwner(tokenId) override(ERC721) {\r\n        address owner = ERC721.ownerOf(tokenId);\r\n        require(_exists(tokenId), \"Not existing Token\");\r\n        require(to != owner, \"ERC721: approval to current owner\");\r\n\r\n        require(\r\n           _isApprovedOwnerOrContracOwner(_msgSender(), tokenId), \"ERC721: transfer caller is not owner,  contract ownernor approved\");\r\n\r\n        _approve(to, tokenId);\r\n    }\r\n    \r\n      //Visualize the balance of the smart contract (ethers)\r\n    function infoSmartContract() public view returns(address, address) {\r\n        address SC_address = address(this);\r\n        return (SC_address, owner());\r\n    } \r\n\r\n     // Obtain all created NFT tokens (product data)\r\n    function getAllProductData() public view onlyOwner returns(ProductData[] memory){\r\n        return product_works;\r\n    }\r\n\r\n     // Obtainin a user's NFT tokens for admin use\r\n    function getOwnerProductData(address _owner) public view onlyOwner returns (ProductData [] memory){\r\n        ProductData[] memory result = new ProductData[](balanceOf(_owner));\r\n        uint256 counter_owner = 0;\r\n        for(uint256 i = 0; i< product_works.length; i++){\r\n            if(_exists(i)){\r\n                if(ownerOf(i) == _owner){\r\n                result[counter_owner] = product_works[i];\r\n                counter_owner++;\r\n                }\r\n            }\r\n            \r\n        }\r\n        return result;\r\n    }\r\n\r\n     function getOwnerProductData() public view returns (ProductData [] memory){\r\n        ProductData[] memory result = new ProductData[](balanceOf(msg.sender));\r\n        uint256 counter_owner = 0;\r\n        for(uint256 i = 0; i< product_works.length; i++) {\r\n             if(_exists(i)){\r\n                if(ownerOf(i) == msg.sender){\r\n                result[counter_owner] = product_works[i];\r\n                counter_owner++;\r\n                }\r\n            }\r\n        }\r\n        return result;\r\n    }\r\n\r\n    //Creates private key from given data using kekkak hash\r\n    function createPrivateKey(\r\n        string memory _nombre, \r\n        string memory _apellido1, \r\n        string memory _apellido2, \r\n        string memory _email,  \r\n        uint256 _numeroSerie, \r\n        address _ownerAddress) public view onlyOwner returns(bytes32) {\r\n\r\n\r\n        \r\n        return sha256(abi.encodePacked(_nombre, _apellido1, _apellido2, _email, _numeroSerie, _ownerAddress));\r\n    }\r\n\r\n    function _createHash(\r\n        bytes32 privateKey,\r\n        uint256 _numPedido,\r\n        string memory _descripcion\r\n        ) private pure returns (bytes32) {\r\n\r\n            \r\n            return keccak256(abi.encodePacked(privateKey, _numPedido, _descripcion));\r\n\r\n    }\r\n\r\n    function checkUserDataForProductData(\r\n        string memory _nombre, \r\n        string memory _apellido1, \r\n        string memory _apellido2, \r\n        string memory _email,\r\n        uint256 _numPedido, \r\n        string memory _descripcion,\r\n        uint256 _numeroSerie) external view returns (bool) {\r\n\r\n        ProductData memory result;\r\n\r\n        for(uint256 i = 0; i < product_works.length; i++){\r\n            if(_exists(i)) {\r\n                if(product_works[i].numeroSerie == _numeroSerie){\r\n                    result = product_works[i];\r\n                }\r\n            }\r\n        }\r\n\r\n        bytes32 privateKey =sha256(abi.encodePacked(_nombre, _apellido1, _apellido2, _email, _numeroSerie, msg.sender)); \r\n\r\n        bytes32 finalKey = _createHash(privateKey, _numPedido, _descripcion);\r\n\r\n        return finalKey == result.privateKey ;\r\n    }\r\n\r\n    // NFT token price Update\r\n    function updatePrice(uint256 _price) external onlyOwner {\r\n        price = _price;\r\n    }\r\n\r\n    \r\n    function withdraw() external payable onlyOwner {\r\n        address payable _owner = payable(owner());\r\n        _owner.transfer(address(this).balance); \r\n    }\r\n    \r\n\r\n    function createProductDataAllFields(\r\n        string memory _nombre, \r\n        string memory _apellido1, \r\n        string memory _apellido2, \r\n        string memory _email,  \r\n        uint256 _numPedido,\r\n        string memory _descripcion,\r\n        string memory _modelo,\r\n        uint256 _numeroSerie,\r\n        address _ownerAddress,\r\n        string memory imageURI,\r\n        uint fechaVenta\r\n        ) public payable onlyOwner {\r\n\r\n        require(msg.sender == owner(), \"Only owner wallet allowed to mint NFT certificates\");\r\n        bytes32 privateKey = createPrivateKey(_nombre, _apellido1, _apellido2, _email, _numeroSerie, _ownerAddress);\r\n        _createProductData(privateKey, _numPedido, _descripcion, _modelo, _numeroSerie,  imageURI, fechaVenta);\r\n        safeTransferFrom(ownerOf(COUNTER-1), _ownerAddress, COUNTER-1);\r\n        approve(owner(), COUNTER-1);\r\n        emit NewProductData(_ownerAddress, COUNTER-1, product_works[COUNTER - 1].modelo, product_works[COUNTER - 1].numeroSerie);\r\n    }\r\n\r\n   function createProductData(\r\n        bytes32 _privateKey,\r\n        uint256 _numPedido,\r\n        string memory _descripcion,\r\n        string memory _modelo,\r\n        uint256 _numeroSerie,\r\n        address userAddress,\r\n        string memory imageURI,\r\n        uint fechaVenta\r\n        ) public payable onlyOwner {\r\n\r\n        require(msg.sender == owner(), \"Only owner wallet allowed to mint NFT certificates\");\r\n        _createProductData(_privateKey, _numPedido, _descripcion, _modelo, _numeroSerie,  imageURI, fechaVenta);\r\n        safeTransferFrom(ownerOf(COUNTER-1), userAddress, COUNTER-1);\r\n        approve(owner(), COUNTER-1);\r\n        emit NewProductData(userAddress, COUNTER-1, product_works[COUNTER - 1].modelo, product_works[COUNTER - 1].numeroSerie);\r\n    }\r\n    \r\n     //NFT Token Creation(ProductData)\r\n    function _createProductData(\r\n        bytes32 _privateKey,\r\n        uint256 _numPedido,\r\n        string memory _descripcion,\r\n        string memory _model,\r\n        uint256 _serialNumber,\r\n        string memory imageURI,\r\n        uint fechaVenta\r\n        ) internal onlyOwner {\r\n\r\n            bytes32 finalKey =  _createHash(_privateKey, _numPedido, _descripcion);\r\n\r\n        ProductData memory newProductData = ProductData(COUNTER, finalKey, _numPedido, _descripcion, _model, _serialNumber, fechaVenta, imageURI);\r\n        product_works.push(newProductData);\r\n        _safeMint(msg.sender, COUNTER);\r\n        _setTokenURI(COUNTER, imageURI);\r\n        COUNTER++;\r\n    }\r\n\r\n\r\n     function _createProductHash(\r\n        bytes32 privateKey,\r\n        uint256 _numPedido,\r\n        string memory _descripcion,\r\n        uint256 _numeroSerie) private pure returns (bytes32) {\r\n            \r\n            return keccak256(abi.encodePacked(privateKey, _numPedido, _numeroSerie, _descripcion));\r\n\r\n    }\r\n}",
  "sourcePath": "C:\\Users\\SILEX PRO\\Desktop\\java\\proyectos\\Arthro\\Cernex BitBucket\\src\\contracts\\RolexToken.sol",
  "compiler": {
    "name": "solc",
    "version": "0.8.13+commit.abaa5c0e.Emscripten.clang"
  },
  "schemaVersion": "3.4.16",
  "updatedAt": "2023-11-21T14:24:54.892Z",
  "networkType": "ethereum",
  "devdoc": {
    "kind": "dev",
    "methods": {
      "approve(address,uint256)": {
        "details": "See {IERC721-approve}."
      },
      "balanceOf(address)": {
        "details": "See {IERC721-balanceOf}."
      },
      "getApproved(uint256)": {
        "details": "See {IERC721-getApproved}."
      },
      "isApprovedForAll(address,address)": {
        "details": "See {IERC721-isApprovedForAll}."
      },
      "name()": {
        "details": "See {IERC721Metadata-name}."
      },
      "owner()": {
        "details": "Returns the address of the current owner."
      },
      "ownerOf(uint256)": {
        "details": "See {IERC721-ownerOf}."
      },
      "renounceOwnership()": {
        "details": "Leaves the contract without owner. It will not be possible to call `onlyOwner` functions anymore. Can only be called by the current owner. NOTE: Renouncing ownership will leave the contract without an owner, thereby removing any functionality that is only available to the owner."
      },
      "safeTransferFrom(address,address,uint256)": {
        "details": "See {IERC721-safeTransferFrom}."
      },
      "safeTransferFrom(address,address,uint256,bytes)": {
        "details": "See {IERC721-safeTransferFrom}."
      },
      "setApprovalForAll(address,bool)": {
        "details": "See {IERC721-setApprovalForAll}."
      },
      "supportsInterface(bytes4)": {
        "details": "See {IERC165-supportsInterface}."
      },
      "symbol()": {
        "details": "See {IERC721Metadata-symbol}."
      },
      "tokenURI(uint256)": {
        "details": "See {IERC721Metadata-tokenURI}."
      },
      "transferFrom(address,address,uint256)": {
        "details": "See {IERC721-transferFrom}."
      },
      "transferOwnership(address)": {
        "details": "Transfers ownership of the contract to a new account (`newOwner`). Can only be called by the current owner."
      }
    },
    "version": 1
  },
  "userdoc": {
    "kind": "user",
    "methods": {},
    "version": 1
  }
}